{
  "contractName": "RideManager",
  "abi": [
    {
      "inputs": [],
      "payable": false,
      "stateMutability": "nonpayable",
      "type": "constructor"
    },
    {
      "anonymous": false,
      "inputs": [
        {
          "indexed": true,
          "internalType": "address",
          "name": "_address",
          "type": "address"
        },
        {
          "indexed": false,
          "internalType": "bytes32",
          "name": "name",
          "type": "bytes32"
        }
      ],
      "name": "DriverRegister",
      "type": "event"
    },
    {
      "anonymous": false,
      "inputs": [
        {
          "indexed": true,
          "internalType": "address",
          "name": "_address",
          "type": "address"
        },
        {
          "indexed": false,
          "internalType": "bytes32",
          "name": "name",
          "type": "bytes32"
        }
      ],
      "name": "RiderRegister",
      "type": "event"
    },
    {
      "anonymous": false,
      "inputs": [
        {
          "indexed": false,
          "internalType": "address payable",
          "name": "_riderAddr",
          "type": "address"
        },
        {
          "indexed": false,
          "internalType": "address payable",
          "name": "_driverAddr",
          "type": "address"
        },
        {
          "indexed": false,
          "internalType": "address",
          "name": "rideAddr",
          "type": "address"
        }
      ],
      "name": "requestDriverEvent",
      "type": "event"
    },
    {
      "constant": true,
      "inputs": [
        {
          "internalType": "address",
          "name": "",
          "type": "address"
        }
      ],
      "name": "driversMapping",
      "outputs": [
        {
          "internalType": "bytes32",
          "name": "name",
          "type": "bytes32"
        },
        {
          "internalType": "bytes32",
          "name": "contact",
          "type": "bytes32"
        },
        {
          "internalType": "bytes32",
          "name": "email",
          "type": "bytes32"
        },
        {
          "internalType": "bytes32",
          "name": "carNo",
          "type": "bytes32"
        },
        {
          "internalType": "uint256",
          "name": "noOfSeats",
          "type": "uint256"
        },
        {
          "internalType": "uint256",
          "name": "rating",
          "type": "uint256"
        },
        {
          "internalType": "enum RideManager.roles",
          "name": "role",
          "type": "uint8"
        },
        {
          "internalType": "enum RideManager.currentStatus",
          "name": "status",
          "type": "uint8"
        },
        {
          "internalType": "address payable",
          "name": "driverAddr",
          "type": "address"
        }
      ],
      "payable": false,
      "stateMutability": "view",
      "type": "function"
    },
    {
      "constant": true,
      "inputs": [
        {
          "internalType": "address",
          "name": "",
          "type": "address"
        }
      ],
      "name": "ridersMapping",
      "outputs": [
        {
          "internalType": "bytes32",
          "name": "name",
          "type": "bytes32"
        },
        {
          "internalType": "bytes32",
          "name": "contact",
          "type": "bytes32"
        },
        {
          "internalType": "bytes32",
          "name": "email",
          "type": "bytes32"
        },
        {
          "internalType": "enum RideManager.roles",
          "name": "role",
          "type": "uint8"
        },
        {
          "internalType": "address payable",
          "name": "riderAddr",
          "type": "address"
        }
      ],
      "payable": false,
      "stateMutability": "view",
      "type": "function"
    },
    {
      "constant": false,
      "inputs": [
        {
          "internalType": "bytes32",
          "name": "_name",
          "type": "bytes32"
        },
        {
          "internalType": "bytes32",
          "name": "_contact",
          "type": "bytes32"
        },
        {
          "internalType": "bytes32",
          "name": "_email",
          "type": "bytes32"
        },
        {
          "internalType": "uint256",
          "name": "_role",
          "type": "uint256"
        },
        {
          "internalType": "address payable",
          "name": "_riderAddr",
          "type": "address"
        }
      ],
      "name": "registerRider",
      "outputs": [],
      "payable": false,
      "stateMutability": "nonpayable",
      "type": "function"
    },
    {
      "constant": true,
      "inputs": [
        {
          "internalType": "address payable",
          "name": "_riderAddr",
          "type": "address"
        }
      ],
      "name": "getRiderInfo",
      "outputs": [
        {
          "components": [
            {
              "internalType": "bytes32",
              "name": "name",
              "type": "bytes32"
            },
            {
              "internalType": "bytes32",
              "name": "contact",
              "type": "bytes32"
            },
            {
              "internalType": "bytes32",
              "name": "email",
              "type": "bytes32"
            },
            {
              "internalType": "enum RideManager.roles",
              "name": "role",
              "type": "uint8"
            },
            {
              "internalType": "address payable",
              "name": "riderAddr",
              "type": "address"
            },
            {
              "internalType": "address[]",
              "name": "rides",
              "type": "address[]"
            }
          ],
          "internalType": "struct RideManager.riderStruct",
          "name": "_riderStruct",
          "type": "tuple"
        }
      ],
      "payable": false,
      "stateMutability": "view",
      "type": "function"
    },
    {
      "constant": false,
      "inputs": [
        {
          "internalType": "address payable",
          "name": "_riderAddr",
          "type": "address"
        }
      ],
      "name": "cancelRide",
      "outputs": [
        {
          "internalType": "bool",
          "name": "",
          "type": "bool"
        }
      ],
      "payable": false,
      "stateMutability": "nonpayable",
      "type": "function"
    },
    {
      "constant": false,
      "inputs": [
        {
          "internalType": "address payable",
          "name": "_driverAddr",
          "type": "address"
        },
        {
          "internalType": "uint256",
          "name": "_rating",
          "type": "uint256"
        }
      ],
      "name": "updateDriverRating",
      "outputs": [],
      "payable": false,
      "stateMutability": "nonpayable",
      "type": "function"
    },
    {
      "constant": false,
      "inputs": [
        {
          "internalType": "bytes32",
          "name": "_name",
          "type": "bytes32"
        },
        {
          "internalType": "bytes32",
          "name": "_contact",
          "type": "bytes32"
        },
        {
          "internalType": "bytes32",
          "name": "_email",
          "type": "bytes32"
        },
        {
          "internalType": "bytes32",
          "name": "_carNo",
          "type": "bytes32"
        },
        {
          "internalType": "uint256",
          "name": "_seats",
          "type": "uint256"
        },
        {
          "internalType": "uint256",
          "name": "_role",
          "type": "uint256"
        },
        {
          "internalType": "address payable",
          "name": "_driverAddr",
          "type": "address"
        }
      ],
      "name": "registerDriver",
      "outputs": [],
      "payable": false,
      "stateMutability": "nonpayable",
      "type": "function"
    },
    {
      "constant": true,
      "inputs": [
        {
          "internalType": "address payable",
          "name": "_driverAddr",
          "type": "address"
        }
      ],
      "name": "getDriverInfo",
      "outputs": [
        {
          "components": [
            {
              "internalType": "bytes32",
              "name": "name",
              "type": "bytes32"
            },
            {
              "internalType": "bytes32",
              "name": "contact",
              "type": "bytes32"
            },
            {
              "internalType": "bytes32",
              "name": "email",
              "type": "bytes32"
            },
            {
              "internalType": "bytes32",
              "name": "carNo",
              "type": "bytes32"
            },
            {
              "internalType": "uint256",
              "name": "noOfSeats",
              "type": "uint256"
            },
            {
              "internalType": "uint256",
              "name": "rating",
              "type": "uint256"
            },
            {
              "internalType": "enum RideManager.roles",
              "name": "role",
              "type": "uint8"
            },
            {
              "internalType": "enum RideManager.currentStatus",
              "name": "status",
              "type": "uint8"
            },
            {
              "internalType": "address payable",
              "name": "driverAddr",
              "type": "address"
            },
            {
              "internalType": "address[]",
              "name": "rides",
              "type": "address[]"
            }
          ],
          "internalType": "struct RideManager.driverStruct",
          "name": "_driverStruct",
          "type": "tuple"
        }
      ],
      "payable": false,
      "stateMutability": "view",
      "type": "function"
    },
    {
      "constant": false,
      "inputs": [
        {
          "internalType": "address payable",
          "name": "_driverAddr",
          "type": "address"
        },
        {
          "internalType": "uint256",
          "name": "_status",
          "type": "uint256"
        }
      ],
      "name": "updateDriverStatus",
      "outputs": [],
      "payable": false,
      "stateMutability": "nonpayable",
      "type": "function"
    },
    {
      "constant": false,
      "inputs": [
        {
          "internalType": "address",
          "name": "_driverAddr",
          "type": "address"
        },
        {
          "internalType": "address",
          "name": "_rideAddr",
          "type": "address"
        }
      ],
      "name": "updateRideInformation",
      "outputs": [],
      "payable": false,
      "stateMutability": "nonpayable",
      "type": "function"
    },
    {
      "constant": false,
      "inputs": [
        {
          "internalType": "address payable",
          "name": "_riderAddr",
          "type": "address"
        },
        {
          "internalType": "string[]",
          "name": "_fromAddr",
          "type": "string[]"
        },
        {
          "internalType": "string[]",
          "name": "_toAddr",
          "type": "string[]"
        },
        {
          "internalType": "bytes32",
          "name": "_amount",
          "type": "bytes32"
        }
      ],
      "name": "requestRide",
      "outputs": [
        {
          "internalType": "address",
          "name": "",
          "type": "address"
        }
      ],
      "payable": false,
      "stateMutability": "nonpayable",
      "type": "function"
    },
    {
      "constant": true,
      "inputs": [],
      "name": "returnDriversAvailable",
      "outputs": [
        {
          "internalType": "address[]",
          "name": "",
          "type": "address[]"
        }
      ],
      "payable": false,
      "stateMutability": "view",
      "type": "function"
    },
    {
      "constant": false,
      "inputs": [
        {
          "internalType": "address payable",
          "name": "_riderAddr",
          "type": "address"
        },
        {
          "internalType": "address payable",
          "name": "_driverAddr",
          "type": "address"
        },
        {
          "internalType": "address",
          "name": "_rideAddr",
          "type": "address"
        }
      ],
      "name": "requestDriver",
      "outputs": [],
      "payable": false,
      "stateMutability": "nonpayable",
      "type": "function"
    }
  ],
  "bytecode": "0x608060405234801561001057600080fd5b50613113806100206000396000f3fe60806040523480156200001157600080fd5b5060043610620000e15760003560e01c806353437eac11620000995780638813f641116200006f5780638813f6411462000268578063b9a5520114620002a2578063ea1d922514620002c2578063f3100ed814620002f857620000e1565b806353437eac14620001ea57806356b863bc146200020a57806372f20719146200024857620000e1565b8062d1b48c14620000e657806307ffc9a11462000108578063213d36b91462000128578063219a7f27146200015e5780632ede948e14620001945780634b1d015414620001b4575b600080fd5b620000f062000318565b604051620000ff919062001ce0565b60405180910390f35b62000126600480360362000120919081019062001642565b620003a8565b005b62000146600480360362000140919081019062001522565b620007e7565b60405162000155919062001c1b565b60405180910390f35b6200017c6004803603620001769190810190620014a0565b620008e0565b6040516200018b919062001e7e565b60405180910390f35b620001b26004803603620001ac9190810190620016ef565b62000abc565b005b620001d26004803603620001cc9190810190620014a0565b62000d4c565b604051620001e1919062001d04565b60405180910390f35b620002086004803603620002029190810190620015c0565b62000e1f565b005b62000228600480360362000222919081019062001474565b62000e93565b6040516200023f9998979695949392919062001d3e565b60405180910390f35b620002666004803603620002609190810190620014cc565b62000f1b565b005b62000286600480360362000280919081019062001474565b62000f5d565b6040516200029995949392919062001ddd565b60405180910390f35b620002c06004803603620002ba9190810190620015c0565b62000fc0565b005b620002e06004803603620002da9190810190620014a0565b6200100b565b604051620002ef919062001ea2565b60405180910390f35b62000316600480360362000310919081019062001601565b62001199565b005b606060008054806020026020016040519081016040528092919081815260200182805480156200039e57602002820191906000526020600020905b8160009054906101000a900473ffffffffffffffffffffffffffffffffffffffff1673ffffffffffffffffffffffffffffffffffffffff168152602001906001019080831162000353575b5050505050905090565b803373ffffffffffffffffffffffffffffffffffffffff168173ffffffffffffffffffffffffffffffffffffffff16146200041a576040517f08c379a0000000000000000000000000000000000000000000000000000000008152600401620004119062001e3a565b60405180910390fd5b87600260008473ffffffffffffffffffffffffffffffffffffffff1673ffffffffffffffffffffffffffffffffffffffff1681526020019081526020016000206000018190555086600260008473ffffffffffffffffffffffffffffffffffffffff1673ffffffffffffffffffffffffffffffffffffffff1681526020019081526020016000206001018190555085600260008473ffffffffffffffffffffffffffffffffffffffff1673ffffffffffffffffffffffffffffffffffffffff1681526020019081526020016000206002018190555084600260008473ffffffffffffffffffffffffffffffffffffffff1673ffffffffffffffffffffffffffffffffffffffff1681526020019081526020016000206003018190555083600260008473ffffffffffffffffffffffffffffffffffffffff1673ffffffffffffffffffffffffffffffffffffffff168152602001908152602001600020600401819055506005600260008473ffffffffffffffffffffffffffffffffffffffff1673ffffffffffffffffffffffffffffffffffffffff1681526020019081526020016000206005018190555060006001811115620005d357fe5b600260008473ffffffffffffffffffffffffffffffffffffffff1673ffffffffffffffffffffffffffffffffffffffff16815260200190815260200160002060060160016101000a81548160ff021916908360018111156200063157fe5b02179055508260018111156200064357fe5b600260008473ffffffffffffffffffffffffffffffffffffffff1673ffffffffffffffffffffffffffffffffffffffff16815260200190815260200160002060060160006101000a81548160ff02191690836001811115620006a157fe5b021790555081600260008473ffffffffffffffffffffffffffffffffffffffff1673ffffffffffffffffffffffffffffffffffffffff16815260200190815260200160002060060160026101000a81548173ffffffffffffffffffffffffffffffffffffffff021916908373ffffffffffffffffffffffffffffffffffffffff16021790555060008290806001815401808255809150509060018203906000526020600020016000909192909190916101000a81548173ffffffffffffffffffffffffffffffffffffffff021916908373ffffffffffffffffffffffffffffffffffffffff160217905550508173ffffffffffffffffffffffffffffffffffffffff167fe6f787aa1ef51ebecae17b89bb1cc8e91b8d2ff46b508e1ac5d8268b9795490589604051620007d5919062001d21565b60405180910390a25050505050505050565b600080856000868686604051620007fe9062001243565b6200080e95949392919062001c75565b604051809103906000f0801580156200082b573d6000803e3d6000fd5b509050600160008773ffffffffffffffffffffffffffffffffffffffff1673ffffffffffffffffffffffffffffffffffffffff1681526020019081526020016000206004018190806001815401808255809150509060018203906000526020600020016000909192909190916101000a81548173ffffffffffffffffffffffffffffffffffffffff021916908373ffffffffffffffffffffffffffffffffffffffff1602179055505080915050949350505050565b620008ea62001251565b600260008373ffffffffffffffffffffffffffffffffffffffff1673ffffffffffffffffffffffffffffffffffffffff168152602001908152602001600020604051806101400160405290816000820154815260200160018201548152602001600282015481526020016003820154815260200160048201548152602001600582015481526020016006820160009054906101000a900460ff1660018111156200099057fe5b60018111156200099c57fe5b81526020016006820160019054906101000a900460ff166001811115620009bf57fe5b6001811115620009cb57fe5b81526020016006820160029054906101000a900473ffffffffffffffffffffffffffffffffffffffff1673ffffffffffffffffffffffffffffffffffffffff1673ffffffffffffffffffffffffffffffffffffffff1681526020016007820180548060200260200160405190810160405280929190818152602001828054801562000aac57602002820191906000526020600020905b8160009054906101000a900473ffffffffffffffffffffffffffffffffffffffff1673ffffffffffffffffffffffffffffffffffffffff168152602001906001019080831162000a61575b5050505050815250509050919050565b803373ffffffffffffffffffffffffffffffffffffffff168173ffffffffffffffffffffffffffffffffffffffff161462000b2e576040517f08c379a000000000000000000000000000000000000000000000000000000000815260040162000b259062001e5c565b60405180910390fd5b85600160008473ffffffffffffffffffffffffffffffffffffffff1673ffffffffffffffffffffffffffffffffffffffff1681526020019081526020016000206000018190555084600160008473ffffffffffffffffffffffffffffffffffffffff1673ffffffffffffffffffffffffffffffffffffffff1681526020019081526020016000206001018190555083600160008473ffffffffffffffffffffffffffffffffffffffff1673ffffffffffffffffffffffffffffffffffffffff1681526020019081526020016000206002018190555082600181111562000c1057fe5b600160008473ffffffffffffffffffffffffffffffffffffffff1673ffffffffffffffffffffffffffffffffffffffff16815260200190815260200160002060030160006101000a81548160ff0219169083600181111562000c6e57fe5b021790555081600160008473ffffffffffffffffffffffffffffffffffffffff1673ffffffffffffffffffffffffffffffffffffffff16815260200190815260200160002060030160016101000a81548173ffffffffffffffffffffffffffffffffffffffff021916908373ffffffffffffffffffffffffffffffffffffffff1602179055508173ffffffffffffffffffffffffffffffffffffffff167f116f04dd86285f4d2f708f1984c5fc0bca25d762fa06fd9defe4c22f6f4aa36b8760405162000d3c919062001d21565b60405180910390a2505050505050565b600080600160008473ffffffffffffffffffffffffffffffffffffffff1673ffffffffffffffffffffffffffffffffffffffff168152602001908152602001600020600401805490509050600160008473ffffffffffffffffffffffffffffffffffffffff1673ffffffffffffffffffffffffffffffffffffffff168152602001908152602001600020600401600182038154811062000de857fe5b9060005260206000200160006101000a81549073ffffffffffffffffffffffffffffffffffffffff02191690556001915050919050565b80600181111562000e2c57fe5b600260008473ffffffffffffffffffffffffffffffffffffffff1673ffffffffffffffffffffffffffffffffffffffff16815260200190815260200160002060060160016101000a81548160ff0219169083600181111562000e8a57fe5b02179055505050565b60026020528060005260406000206000915090508060000154908060010154908060020154908060030154908060040154908060050154908060060160009054906101000a900460ff16908060060160019054906101000a900460ff16908060060160029054906101000a900473ffffffffffffffffffffffffffffffffffffffff16905089565b7f0bd3effa8c6dfdb23eaf76019fccdd9aa8a4ad537034a8b59ffda48c4ccc5e9d83838360405162000f509392919062001c38565b60405180910390a1505050565b60016020528060005260406000206000915090508060000154908060010154908060020154908060030160009054906101000a900460ff16908060030160019054906101000a900473ffffffffffffffffffffffffffffffffffffffff16905085565b80600260008473ffffffffffffffffffffffffffffffffffffffff1673ffffffffffffffffffffffffffffffffffffffff168152602001908152602001600020600501819055505050565b62001015620012de565b600160008373ffffffffffffffffffffffffffffffffffffffff1673ffffffffffffffffffffffffffffffffffffffff1681526020019081526020016000206040518060c00160405290816000820154815260200160018201548152602001600282015481526020016003820160009054906101000a900460ff1660018111156200109c57fe5b6001811115620010a857fe5b81526020016003820160019054906101000a900473ffffffffffffffffffffffffffffffffffffffff1673ffffffffffffffffffffffffffffffffffffffff1673ffffffffffffffffffffffffffffffffffffffff168152602001600482018054806020026020016040519081016040528092919081815260200182805480156200118957602002820191906000526020600020905b8160009054906101000a900473ffffffffffffffffffffffffffffffffffffffff1673ffffffffffffffffffffffffffffffffffffffff16815260200190600101908083116200113e575b5050505050815250509050919050565b600160008373ffffffffffffffffffffffffffffffffffffffff1673ffffffffffffffffffffffffffffffffffffffff1681526020019081526020016000206004018190806001815401808255809150509060018203906000526020600020016000909192909190916101000a81548173ffffffffffffffffffffffffffffffffffffffff021916908373ffffffffffffffffffffffffffffffffffffffff160217905550505050565b610f1a80620021b783390190565b60405180610140016040528060008019168152602001600080191681526020016000801916815260200160008019168152602001600081526020016000815260200160006001811115620012a157fe5b815260200160006001811115620012b457fe5b8152602001600073ffffffffffffffffffffffffffffffffffffffff168152602001606081525090565b6040518060c00160405280600080191681526020016000801916815260200160008019168152602001600060018111156200131557fe5b8152602001600073ffffffffffffffffffffffffffffffffffffffff168152602001606081525090565b60008135905062001350816200214e565b92915050565b600081359050620013678162002168565b92915050565b600082601f8301126200137f57600080fd5b813562001396620013908262001ef4565b62001ec6565b9150818183526020840193506020810190508360005b83811015620013e05781358601620013c5888262001401565b845260208401935060208301925050600181019050620013ac565b5050505092915050565b600081359050620013fb8162002182565b92915050565b600082601f8301126200141357600080fd5b81356200142a620014248262001f1d565b62001ec6565b915080825260208301602083018583830111156200144757600080fd5b62001454838284620020dc565b50505092915050565b6000813590506200146e816200219c565b92915050565b6000602082840312156200148757600080fd5b600062001497848285016200133f565b91505092915050565b600060208284031215620014b357600080fd5b6000620014c38482850162001356565b91505092915050565b600080600060608486031215620014e257600080fd5b6000620014f28682870162001356565b9350506020620015058682870162001356565b925050604062001518868287016200133f565b9150509250925092565b600080600080608085870312156200153957600080fd5b6000620015498782880162001356565b945050602085013567ffffffffffffffff8111156200156757600080fd5b62001575878288016200136d565b935050604085013567ffffffffffffffff8111156200159357600080fd5b620015a1878288016200136d565b9250506060620015b487828801620013ea565b91505092959194509250565b60008060408385031215620015d457600080fd5b6000620015e48582860162001356565b9250506020620015f7858286016200145d565b9150509250929050565b600080604083850312156200161557600080fd5b600062001625858286016200133f565b925050602062001638858286016200133f565b9150509250929050565b600080600080600080600060e0888a0312156200165e57600080fd5b60006200166e8a828b01620013ea565b9750506020620016818a828b01620013ea565b9650506040620016948a828b01620013ea565b9550506060620016a78a828b01620013ea565b9450506080620016ba8a828b016200145d565b93505060a0620016cd8a828b016200145d565b92505060c0620016e08a828b0162001356565b91505092959891949750929550565b600080600080600060a086880312156200170857600080fd5b60006200171888828901620013ea565b95505060206200172b88828901620013ea565b94505060406200173e88828901620013ea565b935050606062001751888289016200145d565b9250506080620017648882890162001356565b9150509295509295909350565b60006200177f8383620017c3565b60208301905092915050565b6000620017998383620019b1565b905092915050565b620017ac8162002036565b82525050565b620017bd8162002036565b82525050565b620017ce8162002022565b82525050565b620017df8162002022565b82525050565b6000620017f28262001f85565b620017fe818562001fde565b93506200180b8362001f5a565b8060005b838110156200184257815162001826888262001771565b9750620018338362001fb3565b9250506001810190506200180f565b5085935050505092915050565b60006200185c8262001f7a565b62001868818562001fcd565b9350620018758362001f4a565b8060005b83811015620018ac57815162001890888262001771565b97506200189d8362001fa6565b92505060018101905062001879565b5085935050505092915050565b6000620018c68262001f90565b620018d2818562001fef565b935083602082028501620018e68562001f6a565b8060005b858110156200192857848403895281516200190685826200178b565b9450620019138362001fc0565b925060208a01995050600181019050620018ea565b50829750879550505050505092915050565b62001945816200204a565b82525050565b620019568162002056565b82525050565b620019678162002056565b82525050565b6200197881620020b4565b82525050565b6200198981620020b4565b82525050565b6200199a81620020c8565b82525050565b620019ab81620020c8565b82525050565b6000620019be8262001f9b565b620019ca818562002000565b9350620019dc818560208601620020eb565b620019e78162002121565b840191505092915050565b600062001a0160168362002011565b91507f43616e6e6f7420726567697374657220647269766572000000000000000000006000830152602082019050919050565b600062001a4360158362002011565b91507f43616e6e6f7420726567697374657220726964657200000000000000000000006000830152602082019050919050565b60006101408301600083015162001a9160008601826200194b565b50602083015162001aa660208601826200194b565b50604083015162001abb60408601826200194b565b50606083015162001ad060608601826200194b565b50608083015162001ae5608086018262001bf9565b5060a083015162001afa60a086018262001bf9565b5060c083015162001b0f60c08601826200198f565b5060e083015162001b2460e08601826200196d565b5061010083015162001b3b610100860182620017a1565b5061012083015184820361012086015262001b5782826200184f565b9150508091505092915050565b600060c08301600083015162001b7e60008601826200194b565b50602083015162001b9360208601826200194b565b50604083015162001ba860408601826200194b565b50606083015162001bbd60608601826200198f565b50608083015162001bd26080860182620017a1565b5060a083015184820360a086015262001bec82826200184f565b9150508091505092915050565b62001c0481620020aa565b82525050565b62001c1581620020aa565b82525050565b600060208201905062001c326000830184620017d4565b92915050565b600060608201905062001c4f6000830186620017b2565b62001c5e6020830185620017b2565b62001c6d6040830184620017d4565b949350505050565b600060a08201905062001c8c6000830188620017b2565b62001c9b6020830187620017b2565b818103604083015262001caf8186620018b9565b9050818103606083015262001cc58185620018b9565b905062001cd660808301846200195c565b9695505050505050565b6000602082019050818103600083015262001cfc8184620017e5565b905092915050565b600060208201905062001d1b60008301846200193a565b92915050565b600060208201905062001d3860008301846200195c565b92915050565b60006101208201905062001d56600083018c6200195c565b62001d65602083018b6200195c565b62001d74604083018a6200195c565b62001d8360608301896200195c565b62001d92608083018862001c0a565b62001da160a083018762001c0a565b62001db060c0830186620019a0565b62001dbf60e08301856200197e565b62001dcf610100830184620017b2565b9a9950505050505050505050565b600060a08201905062001df460008301886200195c565b62001e0360208301876200195c565b62001e1260408301866200195c565b62001e216060830185620019a0565b62001e306080830184620017b2565b9695505050505050565b6000602082019050818103600083015262001e5581620019f2565b9050919050565b6000602082019050818103600083015262001e778162001a34565b9050919050565b6000602082019050818103600083015262001e9a818462001a76565b905092915050565b6000602082019050818103600083015262001ebe818462001b64565b905092915050565b6000604051905081810181811067ffffffffffffffff8211171562001eea57600080fd5b8060405250919050565b600067ffffffffffffffff82111562001f0c57600080fd5b602082029050602081019050919050565b600067ffffffffffffffff82111562001f3557600080fd5b601f19601f8301169050602081019050919050565b6000819050602082019050919050565b6000819050602082019050919050565b6000819050602082019050919050565b600081519050919050565b600081519050919050565b600081519050919050565b600081519050919050565b6000602082019050919050565b6000602082019050919050565b6000602082019050919050565b600082825260208201905092915050565b600082825260208201905092915050565b600082825260208201905092915050565b600082825260208201905092915050565b600082825260208201905092915050565b60006200202f826200208a565b9050919050565b600062002043826200208a565b9050919050565b60008115159050919050565b6000819050919050565b6000819050620020708262002132565b919050565b6000819050620020858262002140565b919050565b600073ffffffffffffffffffffffffffffffffffffffff82169050919050565b6000819050919050565b6000620020c18262002060565b9050919050565b6000620020d58262002075565b9050919050565b82818337600083830152505050565b60005b838110156200210b578082015181840152602081019050620020ee565b838111156200211b576000848401525b50505050565b6000601f19601f8301169050919050565b600281106200213d57fe5b50565b600281106200214b57fe5b50565b620021598162002022565b81146200216557600080fd5b50565b620021738162002036565b81146200217f57600080fd5b50565b6200218d8162002056565b81146200219957600080fd5b50565b620021a781620020aa565b8114620021b357600080fd5b5056fe60806040523480156200001157600080fd5b5060405162000f1a38038062000f1a8339818101604052620000379190810190620003e7565b846000806101000a81548173ffffffffffffffffffffffffffffffffffffffff021916908373ffffffffffffffffffffffffffffffffffffffff16021790555083600160006101000a81548173ffffffffffffffffffffffffffffffffffffffff021916908373ffffffffffffffffffffffffffffffffffffffff1602179055508260029080519060200190620000d09291906200014d565b508160039080519060200190620000e99291906200014d565b50806004819055506000600560006101000a81548160ff0219169083151502179055506000600560016101000a81548160ff0219169083151502179055506000600560026101000a81548160ff0219169083151502179055505050505050620005c7565b828054828255906000526020600020908101928215620001a1579160200282015b82811115620001a05782518290805190602001906200018f929190620001b4565b50916020019190600101906200016e565b5b509050620001b091906200023b565b5090565b828054600181600116156101000203166002900490600052602060002090601f016020900481019282601f10620001f757805160ff191683800117855562000228565b8280016001018555821562000228579182015b82811115620002275782518255916020019190600101906200020a565b5b5090506200023791906200026c565b5090565b6200026991905b808211156200026557600081816200025b919062000294565b5060010162000242565b5090565b90565b6200029191905b808211156200028d57600081600090555060010162000273565b5090565b90565b50805460018160011615610100020316600290046000825580601f10620002bc5750620002dd565b601f016020900490600052602060002090810190620002dc91906200026c565b5b50565b600081519050620002f18162000593565b92915050565b600082601f8301126200030957600080fd5b8151620003206200031a82620004c9565b6200049b565b9150818183526020840193506020810190508360005b838110156200036a57815186016200034f88826200038b565b84526020840193506020830192505060018101905062000336565b5050505092915050565b6000815190506200038581620005ad565b92915050565b600082601f8301126200039d57600080fd5b8151620003b4620003ae82620004f2565b6200049b565b91508082526020830160208301858383011115620003d157600080fd5b620003de8382846200055d565b50505092915050565b600080600080600060a086880312156200040057600080fd5b60006200041088828901620002e0565b95505060206200042388828901620002e0565b945050604086015167ffffffffffffffff8111156200044157600080fd5b6200044f88828901620002f7565b935050606086015167ffffffffffffffff8111156200046d57600080fd5b6200047b88828901620002f7565b92505060806200048e8882890162000374565b9150509295509295909350565b6000604051905081810181811067ffffffffffffffff82111715620004bf57600080fd5b8060405250919050565b600067ffffffffffffffff821115620004e157600080fd5b602082029050602081019050919050565b600067ffffffffffffffff8211156200050a57600080fd5b601f19601f8301169050602081019050919050565b60006200052c826200053d565b9050919050565b6000819050919050565b600073ffffffffffffffffffffffffffffffffffffffff82169050919050565b60005b838110156200057d57808201518184015260208101905062000560565b838111156200058d576000848401525b50505050565b6200059e816200051f565b8114620005aa57600080fd5b50565b620005b88162000533565b8114620005c457600080fd5b50565b61094380620005d76000396000f3fe608060405234801561001057600080fd5b50600436106100575760003560e01c806306ab2e061461005c578063114dba9c14610078578063415f3dc31461009d578063530cce55146100b957806381696320146100d5575b600080fd5b610076600480360361007191908101906105ca565b6100f1565b005b610080610164565b604051610094989796959493929190610722565b60405180910390f35b6100b760048036036100b291908101906105ca565b6103d2565b005b6100d360048036036100ce91908101906105a1565b610445565b005b6100ef60048036036100ea91908101906105ca565b610504565b005b801515600560009054906101000a900460ff1615151415610147576040517f08c379a000000000000000000000000000000000000000000000000000000000815260040161013e906107ae565b60405180910390fd5b80600560006101000a81548160ff02191690831515021790555050565b6000806060806000806000806000809054906101000a900473ffffffffffffffffffffffffffffffffffffffff16600160009054906101000a900473ffffffffffffffffffffffffffffffffffffffff1660026003600454600560009054906101000a900460ff16600560019054906101000a900460ff16600560029054906101000a900460ff1687975086965085805480602002602001604051908101604052809291908181526020016000905b828210156102cf578382906000526020600020018054600181600116156101000203166002900480601f0160208091040260200160405190810160405280929190818152602001828054600181600116156101000203166002900480156102bb5780601f10610290576101008083540402835291602001916102bb565b820191906000526020600020905b81548152906001019060200180831161029e57829003601f168201915b505050505081526020019060010190610213565b50505050955084805480602002602001604051908101604052809291908181526020016000905b828210156103b2578382906000526020600020018054600181600116156101000203166002900480601f01602080910402602001604051908101604052809291908181526020018280546001816001161561010002031660029004801561039e5780601f106103735761010080835404028352916020019161039e565b820191906000526020600020905b81548152906001019060200180831161038157829003601f168201915b5050505050815260200190600101906102f6565b505050509450975097509750975097509750975097509091929394959697565b801515600560029054906101000a900460ff1615151415610428576040517f08c379a000000000000000000000000000000000000000000000000000000000815260040161041f906107ae565b60405180910390fd5b80600560026101000a81548160ff02191690831515021790555050565b80600160006101000a81548173ffffffffffffffffffffffffffffffffffffffff021916908373ffffffffffffffffffffffffffffffffffffffff1602179055506000809054906101000a900473ffffffffffffffffffffffffffffffffffffffff1673ffffffffffffffffffffffffffffffffffffffff168173ffffffffffffffffffffffffffffffffffffffff167f1fceffeeb023eb0adeba901d55c274290298e737e7e9b57ef93f9c86594b006460405160405180910390a350565b801515600560019054906101000a900460ff161515141561055a576040517f08c379a0000000000000000000000000000000000000000000000000000000008152600401610551906107ae565b60405180910390fd5b80600560016101000a81548160ff02191690831515021790555050565b600081359050610586816108d2565b92915050565b60008135905061059b816108e9565b92915050565b6000602082840312156105b357600080fd5b60006105c184828501610577565b91505092915050565b6000602082840312156105dc57600080fd5b60006105ea8482850161058c565b91505092915050565b60006105ff83836106a9565b905092915050565b61061081610834565b82525050565b6000610621826107de565b61062b8185610801565b93508360208202850161063d856107ce565b8060005b85811015610679578484038952815161065a85826105f3565b9450610665836107f4565b925060208a01995050600181019050610641565b50829750879550505050505092915050565b61069481610858565b82525050565b6106a381610864565b82525050565b60006106b4826107e9565b6106be8185610812565b93506106ce81856020860161088e565b6106d7816108c1565b840191505092915050565b60006106ef601483610823565b91507f536f6d65206572726f72206f63637572726564210000000000000000000000006000830152602082019050919050565b600061010082019050610738600083018b610607565b610745602083018a610607565b81810360408301526107578189610616565b9050818103606083015261076b8188610616565b905061077a608083018761069a565b61078760a083018661068b565b61079460c083018561068b565b6107a160e083018461068b565b9998505050505050505050565b600060208201905081810360008301526107c7816106e2565b9050919050565b6000819050602082019050919050565b600081519050919050565b600081519050919050565b6000602082019050919050565b600082825260208201905092915050565b600082825260208201905092915050565b600082825260208201905092915050565b600061083f8261086e565b9050919050565b60006108518261086e565b9050919050565b60008115159050919050565b6000819050919050565b600073ffffffffffffffffffffffffffffffffffffffff82169050919050565b60005b838110156108ac578082015181840152602081019050610891565b838111156108bb576000848401525b50505050565b6000601f19601f8301169050919050565b6108db81610846565b81146108e657600080fd5b50565b6108f281610858565b81146108fd57600080fd5b5056fea365627a7a72315820aebb072cd4ba77d87619a42332c58e45d680aaf030dd6ba63f6a103a9bf416dd6c6578706572696d656e74616cf564736f6c63430005100040a365627a7a723158203e5a820a93f6d2ab62214f3973021968a708c425b9adda66cb85eca43f1ae3026c6578706572696d656e74616cf564736f6c63430005100040",
  "source": "pragma solidity >=0.4.21 <0.7.0;\r\npragma experimental ABIEncoderV2;\r\n\r\nimport './Ride.sol';\r\n\r\ncontract RideManager {\r\n    \r\n    //// Inits ////\r\n    bytes32 constant NULL = \"\";\r\n    address[] driversArray;\r\n\r\n    //// Enums ////\r\n    enum roles {\r\n        rider,\r\n        driver\r\n    }\r\n    \r\n    enum currentStatus {\r\n        free,\r\n        busy\r\n    }\r\n    \r\n    \r\n    //// Structs ////\r\n    struct riderStruct {\r\n        bytes32 name;\r\n        bytes32 contact;\r\n        bytes32 email;\r\n        roles role;\r\n        address payable riderAddr;\r\n        address[] rides;\r\n    }\r\n    \r\n    \r\n    struct driverStruct {\r\n        bytes32 name;\r\n        bytes32 contact;\r\n        bytes32 email;\r\n        bytes32 carNo;\r\n        uint256 noOfSeats;\r\n        uint256 rating;\r\n        roles role;\r\n        currentStatus status;\r\n        address payable driverAddr; \r\n        address[] rides;\r\n    }\r\n    \r\n    \r\n    //// Mappings ////\r\n    mapping (address => riderStruct) public ridersMapping;\r\n    mapping (address => driverStruct) public driversMapping;\r\n\r\n\r\n    //// Events ////\r\n    event RiderRegister(address indexed _address, bytes32 name);\r\n    event DriverRegister(address indexed _address, bytes32 name);\r\n    event requestDriverEvent(address payable _riderAddr, address payable _driverAddr, address rideAddr);\r\n    \r\n    \r\n    //// Constructor ////\r\n    constructor() public {}\r\n    \r\n    \r\n    //// Modifiers ////\r\n    modifier onlyRider(address payable _riderAddr) {\r\n        require(_riderAddr == msg.sender, \"Cannot register rider\");\r\n        _;\r\n    }\r\n    \r\n    modifier onlyDriver(address payable _driverAddr) {\r\n        require(_driverAddr == msg.sender, \"Cannot register driver\");\r\n        _;\r\n    }\r\n\r\n    \r\n    //// Functions ////\r\n    \r\n    /// Riders ///\r\n    function registerRider(bytes32 _name, bytes32 _contact, bytes32 _email, uint _role, address payable _riderAddr) external onlyRider(_riderAddr) {\r\n        \r\n        ridersMapping[_riderAddr].name = _name;\r\n        ridersMapping[_riderAddr].contact = _contact;\r\n        ridersMapping[_riderAddr].email = _email;\r\n        ridersMapping[_riderAddr].role = roles(_role);\r\n        ridersMapping[_riderAddr].riderAddr = _riderAddr;\r\n        \r\n        emit RiderRegister(_riderAddr, _name);\r\n    }\r\n    \r\n    function getRiderInfo(address payable _riderAddr) external view returns(riderStruct memory _riderStruct) {\r\n        return ridersMapping[_riderAddr];\r\n    }\r\n    \r\n    function cancelRide(address payable _riderAddr) public returns(bool) {\r\n        uint len = ridersMapping[_riderAddr].rides.length;\r\n        delete ridersMapping[_riderAddr].rides[len - 1];\r\n        return true;\r\n    }\r\n    \r\n    function updateDriverRating(address payable _driverAddr, uint256 _rating) external {\r\n        driversMapping[_driverAddr].rating = _rating;\r\n    }\r\n    \r\n    \r\n    /// Drivers ///\r\n\r\n    function registerDriver(bytes32 _name, bytes32 _contact, bytes32 _email, bytes32 _carNo, uint256 _seats, uint _role, address payable _driverAddr) external onlyDriver(_driverAddr) {\r\n        \r\n        driversMapping[_driverAddr].name = _name;\r\n        driversMapping[_driverAddr].contact = _contact;\r\n        driversMapping[_driverAddr].email = _email;\r\n        driversMapping[_driverAddr].carNo = _carNo;\r\n        driversMapping[_driverAddr].noOfSeats = _seats;\r\n        driversMapping[_driverAddr].rating = 5;\r\n        driversMapping[_driverAddr].status = currentStatus(0);\r\n        driversMapping[_driverAddr].role = roles(_role);\r\n        driversMapping[_driverAddr].driverAddr = _driverAddr;\r\n        \r\n        driversArray.push(_driverAddr);\r\n        \r\n        emit DriverRegister(_driverAddr, _name);\r\n    }\r\n    \r\n    function getDriverInfo(address payable _driverAddr) external view returns(driverStruct memory _driverStruct) {\r\n        return driversMapping[_driverAddr];\r\n    }\r\n    \r\n    function updateDriverStatus(address payable _driverAddr, uint _status) external {\r\n        driversMapping[_driverAddr].status = currentStatus(_status);\r\n    }\r\n    \r\n    function updateRideInformation(address _driverAddr, address _rideAddr) external {\r\n        ridersMapping[_driverAddr].rides.push(_rideAddr);\r\n    }\r\n    \r\n    \r\n    /// Main ///\r\n    \r\n    function requestRide(address payable _riderAddr, string[] memory _fromAddr, string[] memory _toAddr, bytes32 _amount) public returns(address){\r\n        Ride ride = new Ride(\r\n            _riderAddr,\r\n            address(0),\r\n            _fromAddr,\r\n            _toAddr,\r\n            _amount\r\n        );\r\n        ridersMapping[_riderAddr].rides.push(address(ride));\r\n        \r\n        return address(ride);\r\n    }\r\n    \r\n    function returnDriversAvailable() external view returns(address[] memory) {\r\n        return driversArray;\r\n    }\r\n    \r\n    function requestDriver(address payable _riderAddr, address payable _driverAddr, address _rideAddr) external {\r\n        emit requestDriverEvent(_riderAddr, _driverAddr, _rideAddr);\r\n    }\r\n}",
  "sourcePath": "D:\\7700156202581\\carpooling\\contracts\\RideManager.sol",
  "compiler": {
    "name": "solc",
    "version": "0.5.16+commit.9c3226ce.Emscripten.clang"
  },
  "schemaVersion": "3.4.13",
  "updatedAt": "2023-05-23T08:11:57.148Z",
  "networkType": "ethereum",
  "devdoc": {
    "methods": {}
  },
  "userdoc": {
    "methods": {
      "constructor": "/ Constructor ////",
      "registerDriver(bytes32,bytes32,bytes32,bytes32,uint256,uint256,address)": {
        "notice": "Drivers ///"
      },
      "registerRider(bytes32,bytes32,bytes32,uint256,address)": {
        "notice": "/ Functions //// Riders ///"
      },
      "requestRide(address,string[],string[],bytes32)": {
        "notice": "Main ///"
      }
    }
  }
}