{
  "contractName": "Ride",
  "abi": [
    {
      "inputs": [
        {
          "internalType": "address payable",
          "name": "_riderAddr",
          "type": "address"
        },
        {
          "internalType": "address payable",
          "name": "_driverAddr",
          "type": "address"
        },
        {
          "internalType": "string[]",
          "name": "_fromAddr",
          "type": "string[]"
        },
        {
          "internalType": "string[]",
          "name": "_toAddr",
          "type": "string[]"
        },
        {
          "internalType": "bytes32",
          "name": "_amount",
          "type": "bytes32"
        }
      ],
      "payable": false,
      "stateMutability": "nonpayable",
      "type": "constructor"
    },
    {
      "anonymous": false,
      "inputs": [
        {
          "indexed": true,
          "internalType": "address payable",
          "name": "_driverAddr",
          "type": "address"
        },
        {
          "indexed": true,
          "internalType": "address payable",
          "name": "_riderAddr",
          "type": "address"
        }
      ],
      "name": "UpdateConfirmationEvent",
      "type": "event"
    },
    {
      "constant": true,
      "inputs": [],
      "name": "getRideInfo",
      "outputs": [
        {
          "internalType": "address",
          "name": "",
          "type": "address"
        },
        {
          "internalType": "address",
          "name": "",
          "type": "address"
        },
        {
          "internalType": "string[]",
          "name": "",
          "type": "string[]"
        },
        {
          "internalType": "string[]",
          "name": "",
          "type": "string[]"
        },
        {
          "internalType": "bytes32",
          "name": "",
          "type": "bytes32"
        },
        {
          "internalType": "bool",
          "name": "",
          "type": "bool"
        },
        {
          "internalType": "bool",
          "name": "",
          "type": "bool"
        },
        {
          "internalType": "bool",
          "name": "",
          "type": "bool"
        }
      ],
      "payable": false,
      "stateMutability": "view",
      "type": "function"
    },
    {
      "constant": false,
      "inputs": [
        {
          "internalType": "address payable",
          "name": "_driverAddr",
          "type": "address"
        }
      ],
      "name": "updateDriverAddress",
      "outputs": [],
      "payable": false,
      "stateMutability": "nonpayable",
      "type": "function"
    },
    {
      "constant": false,
      "inputs": [
        {
          "internalType": "bool",
          "name": "_status",
          "type": "bool"
        }
      ],
      "name": "updateRiderConfirmation",
      "outputs": [],
      "payable": false,
      "stateMutability": "nonpayable",
      "type": "function"
    },
    {
      "constant": false,
      "inputs": [
        {
          "internalType": "bool",
          "name": "_status",
          "type": "bool"
        }
      ],
      "name": "updateDriverConfirmation",
      "outputs": [],
      "payable": false,
      "stateMutability": "nonpayable",
      "type": "function"
    },
    {
      "constant": false,
      "inputs": [
        {
          "internalType": "bool",
          "name": "_complete",
          "type": "bool"
        }
      ],
      "name": "updateRideComplete",
      "outputs": [],
      "payable": false,
      "stateMutability": "nonpayable",
      "type": "function"
    }
  ],
  "bytecode": "0x60806040523480156200001157600080fd5b5060405162000f1a38038062000f1a8339818101604052620000379190810190620003e7565b846000806101000a81548173ffffffffffffffffffffffffffffffffffffffff021916908373ffffffffffffffffffffffffffffffffffffffff16021790555083600160006101000a81548173ffffffffffffffffffffffffffffffffffffffff021916908373ffffffffffffffffffffffffffffffffffffffff1602179055508260029080519060200190620000d09291906200014d565b508160039080519060200190620000e99291906200014d565b50806004819055506000600560006101000a81548160ff0219169083151502179055506000600560016101000a81548160ff0219169083151502179055506000600560026101000a81548160ff0219169083151502179055505050505050620005c7565b828054828255906000526020600020908101928215620001a1579160200282015b82811115620001a05782518290805190602001906200018f929190620001b4565b50916020019190600101906200016e565b5b509050620001b091906200023b565b5090565b828054600181600116156101000203166002900490600052602060002090601f016020900481019282601f10620001f757805160ff191683800117855562000228565b8280016001018555821562000228579182015b82811115620002275782518255916020019190600101906200020a565b5b5090506200023791906200026c565b5090565b6200026991905b808211156200026557600081816200025b919062000294565b5060010162000242565b5090565b90565b6200029191905b808211156200028d57600081600090555060010162000273565b5090565b90565b50805460018160011615610100020316600290046000825580601f10620002bc5750620002dd565b601f016020900490600052602060002090810190620002dc91906200026c565b5b50565b600081519050620002f18162000593565b92915050565b600082601f8301126200030957600080fd5b8151620003206200031a82620004c9565b6200049b565b9150818183526020840193506020810190508360005b838110156200036a57815186016200034f88826200038b565b84526020840193506020830192505060018101905062000336565b5050505092915050565b6000815190506200038581620005ad565b92915050565b600082601f8301126200039d57600080fd5b8151620003b4620003ae82620004f2565b6200049b565b91508082526020830160208301858383011115620003d157600080fd5b620003de8382846200055d565b50505092915050565b600080600080600060a086880312156200040057600080fd5b60006200041088828901620002e0565b95505060206200042388828901620002e0565b945050604086015167ffffffffffffffff8111156200044157600080fd5b6200044f88828901620002f7565b935050606086015167ffffffffffffffff8111156200046d57600080fd5b6200047b88828901620002f7565b92505060806200048e8882890162000374565b9150509295509295909350565b6000604051905081810181811067ffffffffffffffff82111715620004bf57600080fd5b8060405250919050565b600067ffffffffffffffff821115620004e157600080fd5b602082029050602081019050919050565b600067ffffffffffffffff8211156200050a57600080fd5b601f19601f8301169050602081019050919050565b60006200052c826200053d565b9050919050565b6000819050919050565b600073ffffffffffffffffffffffffffffffffffffffff82169050919050565b60005b838110156200057d57808201518184015260208101905062000560565b838111156200058d576000848401525b50505050565b6200059e816200051f565b8114620005aa57600080fd5b50565b620005b88162000533565b8114620005c457600080fd5b50565b61094380620005d76000396000f3fe608060405234801561001057600080fd5b50600436106100575760003560e01c806306ab2e061461005c578063114dba9c14610078578063415f3dc31461009d578063530cce55146100b957806381696320146100d5575b600080fd5b610076600480360361007191908101906105ca565b6100f1565b005b610080610164565b604051610094989796959493929190610722565b60405180910390f35b6100b760048036036100b291908101906105ca565b6103d2565b005b6100d360048036036100ce91908101906105a1565b610445565b005b6100ef60048036036100ea91908101906105ca565b610504565b005b801515600560009054906101000a900460ff1615151415610147576040517f08c379a000000000000000000000000000000000000000000000000000000000815260040161013e906107ae565b60405180910390fd5b80600560006101000a81548160ff02191690831515021790555050565b6000806060806000806000806000809054906101000a900473ffffffffffffffffffffffffffffffffffffffff16600160009054906101000a900473ffffffffffffffffffffffffffffffffffffffff1660026003600454600560009054906101000a900460ff16600560019054906101000a900460ff16600560029054906101000a900460ff1687975086965085805480602002602001604051908101604052809291908181526020016000905b828210156102cf578382906000526020600020018054600181600116156101000203166002900480601f0160208091040260200160405190810160405280929190818152602001828054600181600116156101000203166002900480156102bb5780601f10610290576101008083540402835291602001916102bb565b820191906000526020600020905b81548152906001019060200180831161029e57829003601f168201915b505050505081526020019060010190610213565b50505050955084805480602002602001604051908101604052809291908181526020016000905b828210156103b2578382906000526020600020018054600181600116156101000203166002900480601f01602080910402602001604051908101604052809291908181526020018280546001816001161561010002031660029004801561039e5780601f106103735761010080835404028352916020019161039e565b820191906000526020600020905b81548152906001019060200180831161038157829003601f168201915b5050505050815260200190600101906102f6565b505050509450975097509750975097509750975097509091929394959697565b801515600560029054906101000a900460ff1615151415610428576040517f08c379a000000000000000000000000000000000000000000000000000000000815260040161041f906107ae565b60405180910390fd5b80600560026101000a81548160ff02191690831515021790555050565b80600160006101000a81548173ffffffffffffffffffffffffffffffffffffffff021916908373ffffffffffffffffffffffffffffffffffffffff1602179055506000809054906101000a900473ffffffffffffffffffffffffffffffffffffffff1673ffffffffffffffffffffffffffffffffffffffff168173ffffffffffffffffffffffffffffffffffffffff167f1fceffeeb023eb0adeba901d55c274290298e737e7e9b57ef93f9c86594b006460405160405180910390a350565b801515600560019054906101000a900460ff161515141561055a576040517f08c379a0000000000000000000000000000000000000000000000000000000008152600401610551906107ae565b60405180910390fd5b80600560016101000a81548160ff02191690831515021790555050565b600081359050610586816108d2565b92915050565b60008135905061059b816108e9565b92915050565b6000602082840312156105b357600080fd5b60006105c184828501610577565b91505092915050565b6000602082840312156105dc57600080fd5b60006105ea8482850161058c565b91505092915050565b60006105ff83836106a9565b905092915050565b61061081610834565b82525050565b6000610621826107de565b61062b8185610801565b93508360208202850161063d856107ce565b8060005b85811015610679578484038952815161065a85826105f3565b9450610665836107f4565b925060208a01995050600181019050610641565b50829750879550505050505092915050565b61069481610858565b82525050565b6106a381610864565b82525050565b60006106b4826107e9565b6106be8185610812565b93506106ce81856020860161088e565b6106d7816108c1565b840191505092915050565b60006106ef601483610823565b91507f536f6d65206572726f72206f63637572726564210000000000000000000000006000830152602082019050919050565b600061010082019050610738600083018b610607565b610745602083018a610607565b81810360408301526107578189610616565b9050818103606083015261076b8188610616565b905061077a608083018761069a565b61078760a083018661068b565b61079460c083018561068b565b6107a160e083018461068b565b9998505050505050505050565b600060208201905081810360008301526107c7816106e2565b9050919050565b6000819050602082019050919050565b600081519050919050565b600081519050919050565b6000602082019050919050565b600082825260208201905092915050565b600082825260208201905092915050565b600082825260208201905092915050565b600061083f8261086e565b9050919050565b60006108518261086e565b9050919050565b60008115159050919050565b6000819050919050565b600073ffffffffffffffffffffffffffffffffffffffff82169050919050565b60005b838110156108ac578082015181840152602081019050610891565b838111156108bb576000848401525b50505050565b6000601f19601f8301169050919050565b6108db81610846565b81146108e657600080fd5b50565b6108f281610858565b81146108fd57600080fd5b5056fea365627a7a72315820aebb072cd4ba77d87619a42332c58e45d680aaf030dd6ba63f6a103a9bf416dd6c6578706572696d656e74616cf564736f6c63430005100040",
  "source": "pragma solidity >=0.4.21 <0.7.0;\r\npragma experimental ABIEncoderV2;\r\n\r\ncontract Ride {\r\n\r\n    address payable riderAddr;\r\n    address payable driverAddr;\r\n    string[] fromAddr;\r\n    string[] toAddr;\r\n    bytes32 amount;\r\n    bool complete;\r\n    bool confirmedByRider;\r\n    bool confirmedByDriver;\r\n    \r\n    event UpdateConfirmationEvent(address payable indexed _driverAddr, address payable indexed _riderAddr);\r\n\r\n    \r\n    constructor(address payable _riderAddr, address payable _driverAddr, string[] memory _fromAddr, string[] memory _toAddr, bytes32 _amount) public {\r\n        riderAddr = _riderAddr;\r\n        driverAddr = _driverAddr;\r\n        fromAddr = _fromAddr;\r\n        toAddr = _toAddr;\r\n        amount = _amount;\r\n        complete = false;\r\n        confirmedByRider = false;\r\n        confirmedByDriver = false;\r\n    }\r\n    \r\n    function getRideInfo() view public returns(address, address, string[] memory, string[] memory, bytes32, bool, bool, bool) {\r\n        return (riderAddr, driverAddr, fromAddr, toAddr, amount, complete, confirmedByRider, confirmedByDriver);\r\n    }\r\n    \r\n    function updateDriverAddress(address payable _driverAddr) public {\r\n        driverAddr = _driverAddr;\r\n        emit UpdateConfirmationEvent(_driverAddr, riderAddr);\r\n    }\r\n    \r\n    function updateRiderConfirmation(bool _status) public {\r\n        require(confirmedByRider != _status, 'Some error occurred!');\r\n        confirmedByRider = _status;\r\n    }\r\n    \r\n    function updateDriverConfirmation(bool _status) public {\r\n        require(confirmedByDriver != _status, 'Some error occurred!');\r\n        confirmedByDriver = _status;\r\n    }\r\n    \r\n    function updateRideComplete(bool _complete) public {\r\n        require(complete != _complete, 'Some error occurred!');\r\n        complete = _complete;\r\n    }\r\n}",
  "sourcePath": "D:\\7700156202581\\carpooling\\contracts\\Ride.sol",
  "compiler": {
    "name": "solc",
    "version": "0.5.16+commit.9c3226ce.Emscripten.clang"
  },
  "schemaVersion": "3.4.13",
  "updatedAt": "2023-05-23T08:11:40.982Z",
  "devdoc": {
    "methods": {}
  },
  "userdoc": {
    "methods": {}
  }
}